{
  "_format": "hh-sol-artifact-1",
  "contractName": "InvoiceNFT",
  "sourceName": "contracts/InvoiceNFT.sol",
  "abi": [
    {
      "inputs": [
        {
          "internalType": "string",
          "name": "name_",
          "type": "string"
        },
        {
          "internalType": "string",
          "name": "symbol_",
          "type": "string"
        }
      ],
      "stateMutability": "nonpayable",
      "type": "constructor"
    },
    {
      "inputs": [
        {
          "internalType": "address",
          "name": "sender",
          "type": "address"
        },
        {
          "internalType": "uint256",
          "name": "tokenId",
          "type": "uint256"
        },
        {
          "internalType": "address",
          "name": "owner",
          "type": "address"
        }
      ],
      "name": "ERC721IncorrectOwner",
      "type": "error"
    },
    {
      "inputs": [
        {
          "internalType": "address",
          "name": "operator",
          "type": "address"
        },
        {
          "internalType": "uint256",
          "name": "tokenId",
          "type": "uint256"
        }
      ],
      "name": "ERC721InsufficientApproval",
      "type": "error"
    },
    {
      "inputs": [
        {
          "internalType": "address",
          "name": "approver",
          "type": "address"
        }
      ],
      "name": "ERC721InvalidApprover",
      "type": "error"
    },
    {
      "inputs": [
        {
          "internalType": "address",
          "name": "operator",
          "type": "address"
        }
      ],
      "name": "ERC721InvalidOperator",
      "type": "error"
    },
    {
      "inputs": [
        {
          "internalType": "address",
          "name": "owner",
          "type": "address"
        }
      ],
      "name": "ERC721InvalidOwner",
      "type": "error"
    },
    {
      "inputs": [
        {
          "internalType": "address",
          "name": "receiver",
          "type": "address"
        }
      ],
      "name": "ERC721InvalidReceiver",
      "type": "error"
    },
    {
      "inputs": [
        {
          "internalType": "address",
          "name": "sender",
          "type": "address"
        }
      ],
      "name": "ERC721InvalidSender",
      "type": "error"
    },
    {
      "inputs": [
        {
          "internalType": "uint256",
          "name": "tokenId",
          "type": "uint256"
        }
      ],
      "name": "ERC721NonexistentToken",
      "type": "error"
    },
    {
      "inputs": [
        {
          "internalType": "address",
          "name": "owner",
          "type": "address"
        }
      ],
      "name": "OwnableInvalidOwner",
      "type": "error"
    },
    {
      "inputs": [
        {
          "internalType": "address",
          "name": "account",
          "type": "address"
        }
      ],
      "name": "OwnableUnauthorizedAccount",
      "type": "error"
    },
    {
      "anonymous": false,
      "inputs": [
        {
          "indexed": true,
          "internalType": "address",
          "name": "owner",
          "type": "address"
        },
        {
          "indexed": true,
          "internalType": "address",
          "name": "approved",
          "type": "address"
        },
        {
          "indexed": true,
          "internalType": "uint256",
          "name": "tokenId",
          "type": "uint256"
        }
      ],
      "name": "Approval",
      "type": "event"
    },
    {
      "anonymous": false,
      "inputs": [
        {
          "indexed": true,
          "internalType": "address",
          "name": "owner",
          "type": "address"
        },
        {
          "indexed": true,
          "internalType": "address",
          "name": "operator",
          "type": "address"
        },
        {
          "indexed": false,
          "internalType": "bool",
          "name": "approved",
          "type": "bool"
        }
      ],
      "name": "ApprovalForAll",
      "type": "event"
    },
    {
      "anonymous": false,
      "inputs": [
        {
          "indexed": false,
          "internalType": "uint256",
          "name": "_fromTokenId",
          "type": "uint256"
        },
        {
          "indexed": false,
          "internalType": "uint256",
          "name": "_toTokenId",
          "type": "uint256"
        }
      ],
      "name": "BatchMetadataUpdate",
      "type": "event"
    },
    {
      "anonymous": false,
      "inputs": [
        {
          "indexed": true,
          "internalType": "address",
          "name": "oldAddr",
          "type": "address"
        },
        {
          "indexed": true,
          "internalType": "address",
          "name": "newAddr",
          "type": "address"
        }
      ],
      "name": "FactraContractUpdated",
      "type": "event"
    },
    {
      "anonymous": false,
      "inputs": [
        {
          "indexed": true,
          "internalType": "uint256",
          "name": "tokenId",
          "type": "uint256"
        },
        {
          "indexed": true,
          "internalType": "uint256",
          "name": "invoiceId",
          "type": "uint256"
        }
      ],
      "name": "InvoiceTokenBurned",
      "type": "event"
    },
    {
      "anonymous": false,
      "inputs": [
        {
          "indexed": true,
          "internalType": "uint256",
          "name": "tokenId",
          "type": "uint256"
        },
        {
          "indexed": true,
          "internalType": "uint256",
          "name": "invoiceId",
          "type": "uint256"
        },
        {
          "indexed": true,
          "internalType": "address",
          "name": "to",
          "type": "address"
        },
        {
          "indexed": false,
          "internalType": "string",
          "name": "tokenURI",
          "type": "string"
        }
      ],
      "name": "InvoiceTokenMinted",
      "type": "event"
    },
    {
      "anonymous": false,
      "inputs": [
        {
          "indexed": true,
          "internalType": "uint256",
          "name": "tokenId",
          "type": "uint256"
        },
        {
          "indexed": true,
          "internalType": "address",
          "name": "from",
          "type": "address"
        },
        {
          "indexed": true,
          "internalType": "address",
          "name": "to",
          "type": "address"
        }
      ],
      "name": "InvoiceTokenTransferredByFactra",
      "type": "event"
    },
    {
      "anonymous": false,
      "inputs": [
        {
          "indexed": false,
          "internalType": "uint256",
          "name": "_tokenId",
          "type": "uint256"
        }
      ],
      "name": "MetadataUpdate",
      "type": "event"
    },
    {
      "anonymous": false,
      "inputs": [
        {
          "indexed": true,
          "internalType": "address",
          "name": "previousOwner",
          "type": "address"
        },
        {
          "indexed": true,
          "internalType": "address",
          "name": "newOwner",
          "type": "address"
        }
      ],
      "name": "OwnershipTransferred",
      "type": "event"
    },
    {
      "anonymous": false,
      "inputs": [
        {
          "indexed": true,
          "internalType": "address",
          "name": "from",
          "type": "address"
        },
        {
          "indexed": true,
          "internalType": "address",
          "name": "to",
          "type": "address"
        },
        {
          "indexed": true,
          "internalType": "uint256",
          "name": "tokenId",
          "type": "uint256"
        }
      ],
      "name": "Transfer",
      "type": "event"
    },
    {
      "inputs": [
        {
          "internalType": "address",
          "name": "to",
          "type": "address"
        },
        {
          "internalType": "uint256",
          "name": "tokenId",
          "type": "uint256"
        }
      ],
      "name": "approve",
      "outputs": [],
      "stateMutability": "nonpayable",
      "type": "function"
    },
    {
      "inputs": [
        {
          "internalType": "address",
          "name": "owner",
          "type": "address"
        }
      ],
      "name": "balanceOf",
      "outputs": [
        {
          "internalType": "uint256",
          "name": "",
          "type": "uint256"
        }
      ],
      "stateMutability": "view",
      "type": "function"
    },
    {
      "inputs": [
        {
          "internalType": "uint256",
          "name": "tokenId",
          "type": "uint256"
        }
      ],
      "name": "burnInvoice",
      "outputs": [],
      "stateMutability": "nonpayable",
      "type": "function"
    },
    {
      "inputs": [],
      "name": "factraContract",
      "outputs": [
        {
          "internalType": "address",
          "name": "",
          "type": "address"
        }
      ],
      "stateMutability": "view",
      "type": "function"
    },
    {
      "inputs": [
        {
          "internalType": "uint256",
          "name": "tokenId",
          "type": "uint256"
        }
      ],
      "name": "getApproved",
      "outputs": [
        {
          "internalType": "address",
          "name": "",
          "type": "address"
        }
      ],
      "stateMutability": "view",
      "type": "function"
    },
    {
      "inputs": [
        {
          "internalType": "uint256",
          "name": "",
          "type": "uint256"
        }
      ],
      "name": "invoiceToToken",
      "outputs": [
        {
          "internalType": "uint256",
          "name": "",
          "type": "uint256"
        }
      ],
      "stateMutability": "view",
      "type": "function"
    },
    {
      "inputs": [
        {
          "internalType": "address",
          "name": "owner",
          "type": "address"
        },
        {
          "internalType": "address",
          "name": "operator",
          "type": "address"
        }
      ],
      "name": "isApprovedForAll",
      "outputs": [
        {
          "internalType": "bool",
          "name": "",
          "type": "bool"
        }
      ],
      "stateMutability": "view",
      "type": "function"
    },
    {
      "inputs": [
        {
          "internalType": "address",
          "name": "to",
          "type": "address"
        },
        {
          "internalType": "uint256",
          "name": "invoiceId",
          "type": "uint256"
        },
        {
          "internalType": "string",
          "name": "uri",
          "type": "string"
        }
      ],
      "name": "mintInvoice",
      "outputs": [
        {
          "internalType": "uint256",
          "name": "",
          "type": "uint256"
        }
      ],
      "stateMutability": "nonpayable",
      "type": "function"
    },
    {
      "inputs": [],
      "name": "name",
      "outputs": [
        {
          "internalType": "string",
          "name": "",
          "type": "string"
        }
      ],
      "stateMutability": "view",
      "type": "function"
    },
    {
      "inputs": [],
      "name": "owner",
      "outputs": [
        {
          "internalType": "address",
          "name": "",
          "type": "address"
        }
      ],
      "stateMutability": "view",
      "type": "function"
    },
    {
      "inputs": [
        {
          "internalType": "uint256",
          "name": "tokenId",
          "type": "uint256"
        }
      ],
      "name": "ownerOf",
      "outputs": [
        {
          "internalType": "address",
          "name": "",
          "type": "address"
        }
      ],
      "stateMutability": "view",
      "type": "function"
    },
    {
      "inputs": [],
      "name": "renounceOwnership",
      "outputs": [],
      "stateMutability": "nonpayable",
      "type": "function"
    },
    {
      "inputs": [
        {
          "internalType": "address",
          "name": "from",
          "type": "address"
        },
        {
          "internalType": "address",
          "name": "to",
          "type": "address"
        },
        {
          "internalType": "uint256",
          "name": "tokenId",
          "type": "uint256"
        }
      ],
      "name": "safeTransferFrom",
      "outputs": [],
      "stateMutability": "nonpayable",
      "type": "function"
    },
    {
      "inputs": [
        {
          "internalType": "address",
          "name": "from",
          "type": "address"
        },
        {
          "internalType": "address",
          "name": "to",
          "type": "address"
        },
        {
          "internalType": "uint256",
          "name": "tokenId",
          "type": "uint256"
        },
        {
          "internalType": "bytes",
          "name": "data",
          "type": "bytes"
        }
      ],
      "name": "safeTransferFrom",
      "outputs": [],
      "stateMutability": "nonpayable",
      "type": "function"
    },
    {
      "inputs": [
        {
          "internalType": "address",
          "name": "operator",
          "type": "address"
        },
        {
          "internalType": "bool",
          "name": "approved",
          "type": "bool"
        }
      ],
      "name": "setApprovalForAll",
      "outputs": [],
      "stateMutability": "nonpayable",
      "type": "function"
    },
    {
      "inputs": [
        {
          "internalType": "address",
          "name": "_factra",
          "type": "address"
        }
      ],
      "name": "setFactraContract",
      "outputs": [],
      "stateMutability": "nonpayable",
      "type": "function"
    },
    {
      "inputs": [
        {
          "internalType": "bytes4",
          "name": "interfaceId",
          "type": "bytes4"
        }
      ],
      "name": "supportsInterface",
      "outputs": [
        {
          "internalType": "bool",
          "name": "",
          "type": "bool"
        }
      ],
      "stateMutability": "view",
      "type": "function"
    },
    {
      "inputs": [],
      "name": "symbol",
      "outputs": [
        {
          "internalType": "string",
          "name": "",
          "type": "string"
        }
      ],
      "stateMutability": "view",
      "type": "function"
    },
    {
      "inputs": [
        {
          "internalType": "uint256",
          "name": "invoiceId",
          "type": "uint256"
        }
      ],
      "name": "tokenOfInvoice",
      "outputs": [
        {
          "internalType": "uint256",
          "name": "",
          "type": "uint256"
        }
      ],
      "stateMutability": "view",
      "type": "function"
    },
    {
      "inputs": [
        {
          "internalType": "uint256",
          "name": "",
          "type": "uint256"
        }
      ],
      "name": "tokenToInvoice",
      "outputs": [
        {
          "internalType": "uint256",
          "name": "",
          "type": "uint256"
        }
      ],
      "stateMutability": "view",
      "type": "function"
    },
    {
      "inputs": [
        {
          "internalType": "uint256",
          "name": "tokenId",
          "type": "uint256"
        }
      ],
      "name": "tokenURI",
      "outputs": [
        {
          "internalType": "string",
          "name": "",
          "type": "string"
        }
      ],
      "stateMutability": "view",
      "type": "function"
    },
    {
      "inputs": [
        {
          "internalType": "address",
          "name": "from",
          "type": "address"
        },
        {
          "internalType": "address",
          "name": "to",
          "type": "address"
        },
        {
          "internalType": "uint256",
          "name": "tokenId",
          "type": "uint256"
        }
      ],
      "name": "transferFrom",
      "outputs": [],
      "stateMutability": "nonpayable",
      "type": "function"
    },
    {
      "inputs": [
        {
          "internalType": "uint256",
          "name": "tokenId",
          "type": "uint256"
        },
        {
          "internalType": "address",
          "name": "from",
          "type": "address"
        },
        {
          "internalType": "address",
          "name": "to",
          "type": "address"
        }
      ],
      "name": "transferInvoiceTo",
      "outputs": [],
      "stateMutability": "nonpayable",
      "type": "function"
    },
    {
      "inputs": [
        {
          "internalType": "address",
          "name": "newOwner",
          "type": "address"
        }
      ],
      "name": "transferOwnership",
      "outputs": [],
      "stateMutability": "nonpayable",
      "type": "function"
    }
  ],
  "bytecode": "0x60806040523480156200001157600080fd5b5060405162003a9138038062003a91833981810160405281019062000037919062000348565b33828281600090816200004b919062000618565b5080600190816200005d919062000618565b505050600073ffffffffffffffffffffffffffffffffffffffff168173ffffffffffffffffffffffffffffffffffffffff1603620000d55760006040517f1e4fbdf7000000000000000000000000000000000000000000000000000000008152600401620000cc919062000744565b60405180910390fd5b620000e681620000ef60201b60201c565b50505062000761565b6000600760009054906101000a900473ffffffffffffffffffffffffffffffffffffffff16905081600760006101000a81548173ffffffffffffffffffffffffffffffffffffffff021916908373ffffffffffffffffffffffffffffffffffffffff1602179055508173ffffffffffffffffffffffffffffffffffffffff168173ffffffffffffffffffffffffffffffffffffffff167f8be0079c531659141344cd1fd0a4f28419497f9722a3daafe3b4186f6b6457e060405160405180910390a35050565b6000604051905090565b600080fd5b600080fd5b600080fd5b600080fd5b6000601f19601f8301169050919050565b7f4e487b7100000000000000000000000000000000000000000000000000000000600052604160045260246000fd5b6200021e82620001d3565b810181811067ffffffffffffffff8211171562000240576200023f620001e4565b5b80604052505050565b600062000255620001b5565b905062000263828262000213565b919050565b600067ffffffffffffffff821115620002865762000285620001e4565b5b6200029182620001d3565b9050602081019050919050565b60005b83811015620002be578082015181840152602081019050620002a1565b60008484015250505050565b6000620002e1620002db8462000268565b62000249565b9050828152602081018484840111156200030057620002ff620001ce565b5b6200030d8482856200029e565b509392505050565b600082601f8301126200032d576200032c620001c9565b5b81516200033f848260208601620002ca565b91505092915050565b60008060408385031215620003625762000361620001bf565b5b600083015167ffffffffffffffff811115620003835762000382620001c4565b5b620003918582860162000315565b925050602083015167ffffffffffffffff811115620003b557620003b4620001c4565b5b620003c38582860162000315565b9150509250929050565b600081519050919050565b7f4e487b7100000000000000000000000000000000000000000000000000000000600052602260045260246000fd5b600060028204905060018216806200042057607f821691505b602082108103620004365762000435620003d8565b5b50919050565b60008190508160005260206000209050919050565b60006020601f8301049050919050565b600082821b905092915050565b600060088302620004a07fffffffffffffffffffffffffffffffffffffffffffffffffffffffffffffffff8262000461565b620004ac868362000461565b95508019841693508086168417925050509392505050565b6000819050919050565b6000819050919050565b6000620004f9620004f3620004ed84620004c4565b620004ce565b620004c4565b9050919050565b6000819050919050565b6200051583620004d8565b6200052d620005248262000500565b8484546200046e565b825550505050565b600090565b6200054462000535565b620005518184846200050a565b505050565b5b8181101562000579576200056d6000826200053a565b60018101905062000557565b5050565b601f821115620005c85762000592816200043c565b6200059d8462000451565b81016020851015620005ad578190505b620005c5620005bc8562000451565b83018262000556565b50505b505050565b600082821c905092915050565b6000620005ed60001984600802620005cd565b1980831691505092915050565b6000620006088383620005da565b9150826002028217905092915050565b6200062382620003cd565b67ffffffffffffffff8111156200063f576200063e620001e4565b5b6200064b825462000407565b620006588282856200057d565b600060209050601f8311600181146200069057600084156200067b578287015190505b620006878582620005fa565b865550620006f7565b601f198416620006a0866200043c565b60005b82811015620006ca57848901518255600182019150602085019450602081019050620006a3565b86831015620006ea5784890151620006e6601f891682620005da565b8355505b6001600288020188555050505b505050505050565b600073ffffffffffffffffffffffffffffffffffffffff82169050919050565b60006200072c82620006ff565b9050919050565b6200073e816200071f565b82525050565b60006020820190506200075b600083018462000733565b92915050565b61332080620007716000396000f3fe608060405234801561001057600080fd5b50600436106101585760003560e01c8063715018a6116100c3578063cc2d9f861161007c578063cc2d9f86146103e9578063df6bf50314610407578063e3b9825a14610423578063e985e9c51461043f578063eccb584c1461046f578063f2fde38b1461049f57610158565b8063715018a61461033b5780638da5cb5b1461034557806395d89b4114610363578063a22cb46514610381578063b88d4fde1461039d578063c87b56dd146103b957610158565b806323b872dd1161011557806323b872dd146102435780633b09f4d41461025f57806342842e0e1461028f5780635ab6b7e2146102ab5780636352211e146102db57806370a082311461030b57610158565b806301ffc9a71461015d57806306fdde031461018d578063081812fc146101ab578063095ea7b3146101db5780630ac0529a146101f757806313ff251914610213575b600080fd5b61017760048036038101906101729190612475565b6104bb565b60405161018491906124bd565b60405180910390f35b61019561051c565b6040516101a29190612568565b60405180910390f35b6101c560048036038101906101c091906125c0565b6105ae565b6040516101d2919061262e565b60405180910390f35b6101f560048036038101906101f09190612675565b6105ca565b005b610211600480360381019061020c91906126b5565b6105e0565b005b61022d600480360381019061022891906125c0565b6106a8565b60405161023a91906126f1565b60405180910390f35b61025d6004803603810190610258919061270c565b6106c0565b005b610279600480360381019061027491906125c0565b6107c2565b60405161028691906126f1565b60405180910390f35b6102a960048036038101906102a4919061270c565b6107da565b005b6102c560048036038101906102c091906125c0565b6107fa565b6040516102d291906126f1565b60405180910390f35b6102f560048036038101906102f091906125c0565b610817565b604051610302919061262e565b60405180910390f35b610325600480360381019061032091906126b5565b610829565b60405161033291906126f1565b60405180910390f35b6103436108e3565b005b61034d6108f7565b60405161035a919061262e565b60405180910390f35b61036b610921565b6040516103789190612568565b60405180910390f35b61039b6004803603810190610396919061278b565b6109b3565b005b6103b760048036038101906103b29190612900565b6109c9565b005b6103d360048036038101906103ce91906125c0565b6109ee565b6040516103e09190612568565b60405180910390f35b6103f1610b01565b6040516103fe919061262e565b60405180910390f35b610421600480360381019061041c9190612983565b610b27565b005b61043d600480360381019061043891906125c0565b610d07565b005b610459600480360381019061045491906129d6565b610e5b565b60405161046691906124bd565b60405180910390f35b61048960048036038101906104849190612a76565b610eef565b60405161049691906126f1565b60405180910390f35b6104b960048036038101906104b491906126b5565b61111f565b005b6000634906490660e01b7bffffffffffffffffffffffffffffffffffffffffffffffffffffffff1916827bffffffffffffffffffffffffffffffffffffffffffffffffffffffff191614806105155750610514826111a5565b5b9050919050565b60606000805461052b90612b19565b80601f016020809104026020016040519081016040528092919081815260200182805461055790612b19565b80156105a45780601f10610579576101008083540402835291602001916105a4565b820191906000526020600020905b81548152906001019060200180831161058757829003601f168201915b5050505050905090565b60006105b982611287565b506105c38261130f565b9050919050565b6105dc82826105d761134c565b611354565b5050565b6105e8611366565b8073ffffffffffffffffffffffffffffffffffffffff16600960009054906101000a900473ffffffffffffffffffffffffffffffffffffffff1673ffffffffffffffffffffffffffffffffffffffff167f4c55979be3e5c73a38f77119ff5f04d850a302d6655505c2585f1eb24de761b260405160405180910390a380600960006101000a81548173ffffffffffffffffffffffffffffffffffffffff021916908373ffffffffffffffffffffffffffffffffffffffff16021790555050565b600b6020528060005260406000206000915090505481565b600073ffffffffffffffffffffffffffffffffffffffff168273ffffffffffffffffffffffffffffffffffffffff16036107325760006040517f64a0ae92000000000000000000000000000000000000000000000000000000008152600401610729919061262e565b60405180910390fd5b6000610746838361074161134c565b6113ed565b90508373ffffffffffffffffffffffffffffffffffffffff168173ffffffffffffffffffffffffffffffffffffffff16146107bc578382826040517f64283d7b0000000000000000000000000000000000000000000000000000000081526004016107b393929190612b4a565b60405180910390fd5b50505050565b600a6020528060005260406000206000915090505481565b6107f5838383604051806020016040528060008152506109c9565b505050565b6000600b6000838152602001908152602001600020549050919050565b600061082282611287565b9050919050565b60008073ffffffffffffffffffffffffffffffffffffffff168273ffffffffffffffffffffffffffffffffffffffff160361089c5760006040517f89c62b64000000000000000000000000000000000000000000000000000000008152600401610893919061262e565b60405180910390fd5b600360008373ffffffffffffffffffffffffffffffffffffffff1673ffffffffffffffffffffffffffffffffffffffff168152602001908152602001600020549050919050565b6108eb611366565b6108f56000611607565b565b6000600760009054906101000a900473ffffffffffffffffffffffffffffffffffffffff16905090565b60606001805461093090612b19565b80601f016020809104026020016040519081016040528092919081815260200182805461095c90612b19565b80156109a95780601f1061097e576101008083540402835291602001916109a9565b820191906000526020600020905b81548152906001019060200180831161098c57829003601f168201915b5050505050905090565b6109c56109be61134c565b83836116cd565b5050565b6109d48484846106c0565b6109e86109df61134c565b8585858561183c565b50505050565b60606109f982611287565b506000600660008481526020019081526020016000208054610a1a90612b19565b80601f0160208091040260200160405190810160405280929190818152602001828054610a4690612b19565b8015610a935780601f10610a6857610100808354040283529160200191610a93565b820191906000526020600020905b815481529060010190602001808311610a7657829003601f168201915b505050505090506000610aa46119ed565b90506000815103610ab9578192505050610afc565b600082511115610aee578082604051602001610ad6929190612bbd565b60405160208183030381529060405292505050610afc565b610af784611a04565b925050505b919050565b600960009054906101000a900473ffffffffffffffffffffffffffffffffffffffff1681565b600960009054906101000a900473ffffffffffffffffffffffffffffffffffffffff1673ffffffffffffffffffffffffffffffffffffffff163373ffffffffffffffffffffffffffffffffffffffff1614610bb7576040517f08c379a0000000000000000000000000000000000000000000000000000000008152600401610bae90612c2d565b60405180910390fd5b8173ffffffffffffffffffffffffffffffffffffffff16610bd784610817565b73ffffffffffffffffffffffffffffffffffffffff1614610c2d576040517f08c379a0000000000000000000000000000000000000000000000000000000008152600401610c2490612c99565b60405180910390fd5b600073ffffffffffffffffffffffffffffffffffffffff168173ffffffffffffffffffffffffffffffffffffffff1603610c9c576040517f08c379a0000000000000000000000000000000000000000000000000000000008152600401610c9390612d05565b60405180910390fd5b610ca7828285611a6d565b8073ffffffffffffffffffffffffffffffffffffffff168273ffffffffffffffffffffffffffffffffffffffff16847fa1086c9fe0dac56602d134ffc25f2c7fcf2a7b65f58a28bc5694cf45d7346d8260405160405180910390a4505050565b600960009054906101000a900473ffffffffffffffffffffffffffffffffffffffff1673ffffffffffffffffffffffffffffffffffffffff163373ffffffffffffffffffffffffffffffffffffffff1614610d97576040517f08c379a0000000000000000000000000000000000000000000000000000000008152600401610d8e90612c2d565b60405180910390fd5b6000600a600083815260200190815260200160002054905060008103610df2576040517f08c379a0000000000000000000000000000000000000000000000000000000008152600401610de990612d71565b60405180910390fd5b600b600082815260200190815260200160002060009055600a600083815260200190815260200160002060009055610e2982611bda565b80827fd3d1345f9748d3f3ad9e30074333a36b280a323d2329c224715066af796e102e60405160405180910390a35050565b6000600560008473ffffffffffffffffffffffffffffffffffffffff1673ffffffffffffffffffffffffffffffffffffffff16815260200190815260200160002060008373ffffffffffffffffffffffffffffffffffffffff1673ffffffffffffffffffffffffffffffffffffffff16815260200190815260200160002060009054906101000a900460ff16905092915050565b6000600960009054906101000a900473ffffffffffffffffffffffffffffffffffffffff1673ffffffffffffffffffffffffffffffffffffffff163373ffffffffffffffffffffffffffffffffffffffff1614610f81576040517f08c379a0000000000000000000000000000000000000000000000000000000008152600401610f7890612c2d565b60405180910390fd5b60008403610fc4576040517f08c379a0000000000000000000000000000000000000000000000000000000008152600401610fbb90612ddd565b60405180910390fd5b6000600b6000868152602001908152602001600020541461101a576040517f08c379a000000000000000000000000000000000000000000000000000000000815260040161101190612e49565b60405180910390fd5b6008600081548092919061102d90612e98565b9190505550600060085490506110438682611c60565b6110918185858080601f016020809104026020016040519081016040528093929190818152602001838380828437600081840152601f19601f82011690508083019250505050505050611c7e565b84600a60008381526020019081526020016000208190555080600b6000878152602001908152602001600020819055508573ffffffffffffffffffffffffffffffffffffffff1685827fab18bbda43d88cb112e9d592d2d63de8bf5acff73223c756e82f8a841fd0e13b878760405161110b929190612f0d565b60405180910390a480915050949350505050565b611127611366565b600073ffffffffffffffffffffffffffffffffffffffff168173ffffffffffffffffffffffffffffffffffffffff16036111995760006040517f1e4fbdf7000000000000000000000000000000000000000000000000000000008152600401611190919061262e565b60405180910390fd5b6111a281611607565b50565b60007f80ac58cd000000000000000000000000000000000000000000000000000000007bffffffffffffffffffffffffffffffffffffffffffffffffffffffff1916827bffffffffffffffffffffffffffffffffffffffffffffffffffffffff1916148061127057507f5b5e139f000000000000000000000000000000000000000000000000000000007bffffffffffffffffffffffffffffffffffffffffffffffffffffffff1916827bffffffffffffffffffffffffffffffffffffffffffffffffffffffff1916145b80611280575061127f82611cda565b5b9050919050565b60008061129383611d44565b9050600073ffffffffffffffffffffffffffffffffffffffff168173ffffffffffffffffffffffffffffffffffffffff160361130657826040517f7e2732890000000000000000000000000000000000000000000000000000000081526004016112fd91906126f1565b60405180910390fd5b80915050919050565b60006004600083815260200190815260200160002060009054906101000a900473ffffffffffffffffffffffffffffffffffffffff169050919050565b600033905090565b6113618383836001611d81565b505050565b61136e61134c565b73ffffffffffffffffffffffffffffffffffffffff1661138c6108f7565b73ffffffffffffffffffffffffffffffffffffffff16146113eb576113af61134c565b6040517f118cdaa70000000000000000000000000000000000000000000000000000000081526004016113e2919061262e565b60405180910390fd5b565b6000806113f984611d44565b9050600073ffffffffffffffffffffffffffffffffffffffff168373ffffffffffffffffffffffffffffffffffffffff161461143b5761143a818486611f46565b5b600073ffffffffffffffffffffffffffffffffffffffff168173ffffffffffffffffffffffffffffffffffffffff16146114cc5761147d600085600080611d81565b6001600360008373ffffffffffffffffffffffffffffffffffffffff1673ffffffffffffffffffffffffffffffffffffffff168152602001908152602001600020600082825403925050819055505b600073ffffffffffffffffffffffffffffffffffffffff168573ffffffffffffffffffffffffffffffffffffffff161461154f576001600360008773ffffffffffffffffffffffffffffffffffffffff1673ffffffffffffffffffffffffffffffffffffffff168152602001908152602001600020600082825401925050819055505b846002600086815260200190815260200160002060006101000a81548173ffffffffffffffffffffffffffffffffffffffff021916908373ffffffffffffffffffffffffffffffffffffffff160217905550838573ffffffffffffffffffffffffffffffffffffffff168273ffffffffffffffffffffffffffffffffffffffff167fddf252ad1be2c89b69c2b068fc378daa952ba7f163c4a11628f55a4df523b3ef60405160405180910390a4809150509392505050565b6000600760009054906101000a900473ffffffffffffffffffffffffffffffffffffffff16905081600760006101000a81548173ffffffffffffffffffffffffffffffffffffffff021916908373ffffffffffffffffffffffffffffffffffffffff1602179055508173ffffffffffffffffffffffffffffffffffffffff168173ffffffffffffffffffffffffffffffffffffffff167f8be0079c531659141344cd1fd0a4f28419497f9722a3daafe3b4186f6b6457e060405160405180910390a35050565b600073ffffffffffffffffffffffffffffffffffffffff168273ffffffffffffffffffffffffffffffffffffffff160361173e57816040517f5b08ba18000000000000000000000000000000000000000000000000000000008152600401611735919061262e565b60405180910390fd5b80600560008573ffffffffffffffffffffffffffffffffffffffff1673ffffffffffffffffffffffffffffffffffffffff16815260200190815260200160002060008473ffffffffffffffffffffffffffffffffffffffff1673ffffffffffffffffffffffffffffffffffffffff16815260200190815260200160002060006101000a81548160ff0219169083151502179055508173ffffffffffffffffffffffffffffffffffffffff168373ffffffffffffffffffffffffffffffffffffffff167f17307eab39ab6107e8899845ad3d59bd9653f200f220920489ca2b5937696c318360405161182f91906124bd565b60405180910390a3505050565b60008373ffffffffffffffffffffffffffffffffffffffff163b11156119e6578273ffffffffffffffffffffffffffffffffffffffff1663150b7a02868685856040518563ffffffff1660e01b815260040161189b9493929190612f86565b6020604051808303816000875af19250505080156118d757506040513d601f19601f820116820180604052508101906118d49190612fe7565b60015b61195b573d8060008114611907576040519150601f19603f3d011682016040523d82523d6000602084013e61190c565b606091505b50600081510361195357836040517f64a0ae9200000000000000000000000000000000000000000000000000000000815260040161194a919061262e565b60405180910390fd5b805160208201fd5b63150b7a0260e01b7bffffffffffffffffffffffffffffffffffffffffffffffffffffffff1916817bffffffffffffffffffffffffffffffffffffffffffffffffffffffff1916146119e457836040517f64a0ae920000000000000000000000000000000000000000000000000000000081526004016119db919061262e565b60405180910390fd5b505b5050505050565b606060405180602001604052806000815250905090565b6060611a0f82611287565b506000611a1a6119ed565b90506000815111611a3a5760405180602001604052806000815250611a65565b80611a448461200a565b604051602001611a55929190612bbd565b6040516020818303038152906040525b915050919050565b600073ffffffffffffffffffffffffffffffffffffffff168273ffffffffffffffffffffffffffffffffffffffff1603611adf5760006040517f64a0ae92000000000000000000000000000000000000000000000000000000008152600401611ad6919061262e565b60405180910390fd5b6000611aed838360006113ed565b9050600073ffffffffffffffffffffffffffffffffffffffff168173ffffffffffffffffffffffffffffffffffffffff1603611b6057816040517f7e273289000000000000000000000000000000000000000000000000000000008152600401611b5791906126f1565b60405180910390fd5b8373ffffffffffffffffffffffffffffffffffffffff168173ffffffffffffffffffffffffffffffffffffffff1614611bd4578382826040517f64283d7b000000000000000000000000000000000000000000000000000000008152600401611bcb93929190612b4a565b60405180910390fd5b50505050565b6000611be960008360006113ed565b9050600073ffffffffffffffffffffffffffffffffffffffff168173ffffffffffffffffffffffffffffffffffffffff1603611c5c57816040517f7e273289000000000000000000000000000000000000000000000000000000008152600401611c5391906126f1565b60405180910390fd5b5050565b611c7a8282604051806020016040528060008152506120d8565b5050565b80600660008481526020019081526020016000209081611c9e91906131c0565b507ff8e1a15aba9398e019f0b49df1a4fde98ee17ae345cb5f6b5e2c27f5033e8ce782604051611cce91906126f1565b60405180910390a15050565b60007f01ffc9a7000000000000000000000000000000000000000000000000000000007bffffffffffffffffffffffffffffffffffffffffffffffffffffffff1916827bffffffffffffffffffffffffffffffffffffffffffffffffffffffff1916149050919050565b60006002600083815260200190815260200160002060009054906101000a900473ffffffffffffffffffffffffffffffffffffffff169050919050565b8080611dba5750600073ffffffffffffffffffffffffffffffffffffffff168273ffffffffffffffffffffffffffffffffffffffff1614155b15611eee576000611dca84611287565b9050600073ffffffffffffffffffffffffffffffffffffffff168373ffffffffffffffffffffffffffffffffffffffff1614158015611e3557508273ffffffffffffffffffffffffffffffffffffffff168173ffffffffffffffffffffffffffffffffffffffff1614155b8015611e485750611e468184610e5b565b155b15611e8a57826040517fa9fbf51f000000000000000000000000000000000000000000000000000000008152600401611e81919061262e565b60405180910390fd5b8115611eec57838573ffffffffffffffffffffffffffffffffffffffff168273ffffffffffffffffffffffffffffffffffffffff167f8c5be1e5ebec7d5bd14f71427d1e84f3dd0314c0f7b2291e5b200ac8c7c3b92560405160405180910390a45b505b836004600085815260200190815260200160002060006101000a81548173ffffffffffffffffffffffffffffffffffffffff021916908373ffffffffffffffffffffffffffffffffffffffff16021790555050505050565b611f518383836120fc565b61200557600073ffffffffffffffffffffffffffffffffffffffff168373ffffffffffffffffffffffffffffffffffffffff1603611fc657806040517f7e273289000000000000000000000000000000000000000000000000000000008152600401611fbd91906126f1565b60405180910390fd5b81816040517f177e802f000000000000000000000000000000000000000000000000000000008152600401611ffc929190613292565b60405180910390fd5b505050565b606060006001612019846121bd565b01905060008167ffffffffffffffff811115612038576120376127d5565b5b6040519080825280601f01601f19166020018201604052801561206a5781602001600182028036833780820191505090505b509050600082602083010190505b6001156120cd578080600190039150507f3031323334353637383961626364656600000000000000000000000000000000600a86061a8153600a85816120c1576120c06132bb565b5b04945060008503612078575b819350505050919050565b6120e28383612310565b6120f76120ed61134c565b600085858561183c565b505050565b60008073ffffffffffffffffffffffffffffffffffffffff168373ffffffffffffffffffffffffffffffffffffffff16141580156121b457508273ffffffffffffffffffffffffffffffffffffffff168473ffffffffffffffffffffffffffffffffffffffff16148061217557506121748484610e5b565b5b806121b357508273ffffffffffffffffffffffffffffffffffffffff1661219b8361130f565b73ffffffffffffffffffffffffffffffffffffffff16145b5b90509392505050565b600080600090507a184f03e93ff9f4daa797ed6e38ed64bf6a1f010000000000000000831061221b577a184f03e93ff9f4daa797ed6e38ed64bf6a1f0100000000000000008381612211576122106132bb565b5b0492506040810190505b6d04ee2d6d415b85acef81000000008310612258576d04ee2d6d415b85acef8100000000838161224e5761224d6132bb565b5b0492506020810190505b662386f26fc10000831061228757662386f26fc10000838161227d5761227c6132bb565b5b0492506010810190505b6305f5e10083106122b0576305f5e10083816122a6576122a56132bb565b5b0492506008810190505b61271083106122d55761271083816122cb576122ca6132bb565b5b0492506004810190505b606483106122f857606483816122ee576122ed6132bb565b5b0492506002810190505b600a8310612307576001810190505b80915050919050565b600073ffffffffffffffffffffffffffffffffffffffff168273ffffffffffffffffffffffffffffffffffffffff16036123825760006040517f64a0ae92000000000000000000000000000000000000000000000000000000008152600401612379919061262e565b60405180910390fd5b6000612390838360006113ed565b9050600073ffffffffffffffffffffffffffffffffffffffff168173ffffffffffffffffffffffffffffffffffffffff16146124045760006040517f73c6ac6e0000000000000000000000000000000000000000000000000000000081526004016123fb919061262e565b60405180910390fd5b505050565b6000604051905090565b600080fd5b600080fd5b60007fffffffff0000000000000000000000000000000000000000000000000000000082169050919050565b6124528161241d565b811461245d57600080fd5b50565b60008135905061246f81612449565b92915050565b60006020828403121561248b5761248a612413565b5b600061249984828501612460565b91505092915050565b60008115159050919050565b6124b7816124a2565b82525050565b60006020820190506124d260008301846124ae565b92915050565b600081519050919050565b600082825260208201905092915050565b60005b838110156125125780820151818401526020810190506124f7565b60008484015250505050565b6000601f19601f8301169050919050565b600061253a826124d8565b61254481856124e3565b93506125548185602086016124f4565b61255d8161251e565b840191505092915050565b60006020820190508181036000830152612582818461252f565b905092915050565b6000819050919050565b61259d8161258a565b81146125a857600080fd5b50565b6000813590506125ba81612594565b92915050565b6000602082840312156125d6576125d5612413565b5b60006125e4848285016125ab565b91505092915050565b600073ffffffffffffffffffffffffffffffffffffffff82169050919050565b6000612618826125ed565b9050919050565b6126288161260d565b82525050565b6000602082019050612643600083018461261f565b92915050565b6126528161260d565b811461265d57600080fd5b50565b60008135905061266f81612649565b92915050565b6000806040838503121561268c5761268b612413565b5b600061269a85828601612660565b92505060206126ab858286016125ab565b9150509250929050565b6000602082840312156126cb576126ca612413565b5b60006126d984828501612660565b91505092915050565b6126eb8161258a565b82525050565b600060208201905061270660008301846126e2565b92915050565b60008060006060848603121561272557612724612413565b5b600061273386828701612660565b935050602061274486828701612660565b9250506040612755868287016125ab565b9150509250925092565b612768816124a2565b811461277357600080fd5b50565b6000813590506127858161275f565b92915050565b600080604083850312156127a2576127a1612413565b5b60006127b085828601612660565b92505060206127c185828601612776565b9150509250929050565b600080fd5b600080fd5b7f4e487b7100000000000000000000000000000000000000000000000000000000600052604160045260246000fd5b61280d8261251e565b810181811067ffffffffffffffff8211171561282c5761282b6127d5565b5b80604052505050565b600061283f612409565b905061284b8282612804565b919050565b600067ffffffffffffffff82111561286b5761286a6127d5565b5b6128748261251e565b9050602081019050919050565b82818337600083830152505050565b60006128a361289e84612850565b612835565b9050828152602081018484840111156128bf576128be6127d0565b5b6128ca848285612881565b509392505050565b600082601f8301126128e7576128e66127cb565b5b81356128f7848260208601612890565b91505092915050565b6000806000806080858703121561291a57612919612413565b5b600061292887828801612660565b945050602061293987828801612660565b935050604061294a878288016125ab565b925050606085013567ffffffffffffffff81111561296b5761296a612418565b5b612977878288016128d2565b91505092959194509250565b60008060006060848603121561299c5761299b612413565b5b60006129aa868287016125ab565b93505060206129bb86828701612660565b92505060406129cc86828701612660565b9150509250925092565b600080604083850312156129ed576129ec612413565b5b60006129fb85828601612660565b9250506020612a0c85828601612660565b9150509250929050565b600080fd5b600080fd5b60008083601f840112612a3657612a356127cb565b5b8235905067ffffffffffffffff811115612a5357612a52612a16565b5b602083019150836001820283011115612a6f57612a6e612a1b565b5b9250929050565b60008060008060608587031215612a9057612a8f612413565b5b6000612a9e87828801612660565b9450506020612aaf878288016125ab565b935050604085013567ffffffffffffffff811115612ad057612acf612418565b5b612adc87828801612a20565b925092505092959194509250565b7f4e487b7100000000000000000000000000000000000000000000000000000000600052602260045260246000fd5b60006002820490506001821680612b3157607f821691505b602082108103612b4457612b43612aea565b5b50919050565b6000606082019050612b5f600083018661261f565b612b6c60208301856126e2565b612b79604083018461261f565b949350505050565b600081905092915050565b6000612b97826124d8565b612ba18185612b81565b9350612bb18185602086016124f4565b80840191505092915050565b6000612bc98285612b8c565b9150612bd58284612b8c565b91508190509392505050565b7f4f6e6c792046616374726120636f6e74726163742063616e2063616c6c000000600082015250565b6000612c17601d836124e3565b9150612c2282612be1565b602082019050919050565b60006020820190508181036000830152612c4681612c0a565b9050919050565b7f46726f6d206973206e6f7420746f6b656e206f776e6572000000000000000000600082015250565b6000612c836017836124e3565b9150612c8e82612c4d565b602082019050919050565b60006020820190508181036000830152612cb281612c76565b9050919050565b7f496e76616c696420726563697069656e74000000000000000000000000000000600082015250565b6000612cef6011836124e3565b9150612cfa82612cb9565b602082019050919050565b60006020820190508181036000830152612d1e81612ce2565b9050919050565b7f546f6b656e4964206e6f74206c696e6b656420746f20696e766f696365000000600082015250565b6000612d5b601d836124e3565b9150612d6682612d25565b602082019050919050565b60006020820190508181036000830152612d8a81612d4e565b9050919050565b7f696e766f69636549642063616e6e6f7420626520300000000000000000000000600082015250565b6000612dc76015836124e3565b9150612dd282612d91565b602082019050919050565b60006020820190508181036000830152612df681612dba565b9050919050565b7f496e766f69636520616c726561647920746f6b656e697a656400000000000000600082015250565b6000612e336019836124e3565b9150612e3e82612dfd565b602082019050919050565b60006020820190508181036000830152612e6281612e26565b9050919050565b7f4e487b7100000000000000000000000000000000000000000000000000000000600052601160045260246000fd5b6000612ea38261258a565b91507fffffffffffffffffffffffffffffffffffffffffffffffffffffffffffffffff8203612ed557612ed4612e69565b5b600182019050919050565b6000612eec83856124e3565b9350612ef9838584612881565b612f028361251e565b840190509392505050565b60006020820190508181036000830152612f28818486612ee0565b90509392505050565b600081519050919050565b600082825260208201905092915050565b6000612f5882612f31565b612f628185612f3c565b9350612f728185602086016124f4565b612f7b8161251e565b840191505092915050565b6000608082019050612f9b600083018761261f565b612fa8602083018661261f565b612fb560408301856126e2565b8181036060830152612fc78184612f4d565b905095945050505050565b600081519050612fe181612449565b92915050565b600060208284031215612ffd57612ffc612413565b5b600061300b84828501612fd2565b91505092915050565b60008190508160005260206000209050919050565b60006020601f8301049050919050565b600082821b905092915050565b6000600883026130767fffffffffffffffffffffffffffffffffffffffffffffffffffffffffffffffff82613039565b6130808683613039565b95508019841693508086168417925050509392505050565b6000819050919050565b60006130bd6130b86130b38461258a565b613098565b61258a565b9050919050565b6000819050919050565b6130d7836130a2565b6130eb6130e3826130c4565b848454613046565b825550505050565b600090565b6131006130f3565b61310b8184846130ce565b505050565b5b8181101561312f576131246000826130f8565b600181019050613111565b5050565b601f8211156131745761314581613014565b61314e84613029565b8101602085101561315d578190505b61317161316985613029565b830182613110565b50505b505050565b600082821c905092915050565b600061319760001984600802613179565b1980831691505092915050565b60006131b08383613186565b9150826002028217905092915050565b6131c9826124d8565b67ffffffffffffffff8111156131e2576131e16127d5565b5b6131ec8254612b19565b6131f7828285613133565b600060209050601f83116001811461322a5760008415613218578287015190505b61322285826131a4565b86555061328a565b601f19841661323886613014565b60005b828110156132605784890151825560018201915060208501945060208101905061323b565b8683101561327d5784890151613279601f891682613186565b8355505b6001600288020188555050505b505050505050565b60006040820190506132a7600083018561261f565b6132b460208301846126e2565b9392505050565b7f4e487b7100000000000000000000000000000000000000000000000000000000600052601260045260246000fdfea26469706673582212203d20323ac38a601aa0a8ecfe6e6257a6b14e42ad650d96da06ff514b222f4bd764736f6c63430008180033",
  "linkReferences": {},
  "deployedLinkReferences": {}
}