{
  "_format": "hh-sol-artifact-1",
  "contractName": "Factra",
  "sourceName": "contracts/Factra.sol",
  "abi": [
    {
      "anonymous": false,
      "inputs": [
        {
          "indexed": true,
          "internalType": "uint256",
          "name": "id",
          "type": "uint256"
        },
        {
          "indexed": true,
          "internalType": "address",
          "name": "issuer",
          "type": "address"
        },
        {
          "indexed": false,
          "internalType": "uint256",
          "name": "amount",
          "type": "uint256"
        },
        {
          "indexed": false,
          "internalType": "uint256",
          "name": "dueDate",
          "type": "uint256"
        }
      ],
      "name": "InvoiceCreated",
      "type": "event"
    },
    {
      "anonymous": false,
      "inputs": [
        {
          "indexed": true,
          "internalType": "uint256",
          "name": "id",
          "type": "uint256"
        },
        {
          "indexed": true,
          "internalType": "address",
          "name": "buyer",
          "type": "address"
        },
        {
          "indexed": false,
          "internalType": "uint256",
          "name": "amount",
          "type": "uint256"
        }
      ],
      "name": "InvoiceFunded",
      "type": "event"
    },
    {
      "anonymous": false,
      "inputs": [
        {
          "indexed": true,
          "internalType": "uint256",
          "name": "id",
          "type": "uint256"
        }
      ],
      "name": "InvoicePaid",
      "type": "event"
    },
    {
      "inputs": [
        {
          "internalType": "uint256",
          "name": "amount",
          "type": "uint256"
        },
        {
          "internalType": "uint256",
          "name": "dueDate",
          "type": "uint256"
        }
      ],
      "name": "createInvoice",
      "outputs": [],
      "stateMutability": "nonpayable",
      "type": "function"
    },
    {
      "inputs": [
        {
          "internalType": "uint256",
          "name": "id",
          "type": "uint256"
        }
      ],
      "name": "fundInvoice",
      "outputs": [],
      "stateMutability": "payable",
      "type": "function"
    },
    {
      "inputs": [],
      "name": "invoiceCounter",
      "outputs": [
        {
          "internalType": "uint256",
          "name": "",
          "type": "uint256"
        }
      ],
      "stateMutability": "view",
      "type": "function"
    },
    {
      "inputs": [
        {
          "internalType": "uint256",
          "name": "",
          "type": "uint256"
        }
      ],
      "name": "invoices",
      "outputs": [
        {
          "internalType": "uint256",
          "name": "id",
          "type": "uint256"
        },
        {
          "internalType": "address payable",
          "name": "issuer",
          "type": "address"
        },
        {
          "internalType": "address payable",
          "name": "buyer",
          "type": "address"
        },
        {
          "internalType": "uint256",
          "name": "amount",
          "type": "uint256"
        },
        {
          "internalType": "uint256",
          "name": "dueDate",
          "type": "uint256"
        },
        {
          "internalType": "enum Factra.InvoiceStatus",
          "name": "status",
          "type": "uint8"
        }
      ],
      "stateMutability": "view",
      "type": "function"
    },
    {
      "inputs": [
        {
          "internalType": "uint256",
          "name": "id",
          "type": "uint256"
        }
      ],
      "name": "markAsPaid",
      "outputs": [],
      "stateMutability": "nonpayable",
      "type": "function"
    }
  ],
  "bytecode": "0x608060405234801561001057600080fd5b50610b8d806100206000396000f3fe60806040526004361061004a5760003560e01c80634e6d14051461004f57806364d5fa47146100915780637021cafe146100ad57806389e78db3146100d6578063a57b381c146100ff575b600080fd5b34801561005b57600080fd5b5061007660048036038101906100719190610746565b61012a565b6040516100889695949392919061083a565b60405180910390f35b6100ab60048036038101906100a69190610746565b6101b3565b005b3480156100b957600080fd5b506100d460048036038101906100cf9190610746565b6103b6565b005b3480156100e257600080fd5b506100fd60048036038101906100f8919061089b565b610535565b005b34801561010b57600080fd5b50610114610705565b60405161012191906108db565b60405180910390f35b60016020528060005260406000206000915090508060000154908060010160009054906101000a900473ffffffffffffffffffffffffffffffffffffffff16908060020160009054906101000a900473ffffffffffffffffffffffffffffffffffffffff16908060030154908060040154908060050160009054906101000a900460ff16905086565b6000600160008381526020019081526020016000209050600060028111156101de576101dd6107c3565b5b8160050160009054906101000a900460ff166002811115610202576102016107c3565b5b14610242576040517f08c379a000000000000000000000000000000000000000000000000000000000815260040161023990610953565b60405180910390fd5b80600301543414610288576040517f08c379a000000000000000000000000000000000000000000000000000000000815260040161027f906109bf565b60405180910390fd5b338160020160006101000a81548173ffffffffffffffffffffffffffffffffffffffff021916908373ffffffffffffffffffffffffffffffffffffffff16021790555060018160050160006101000a81548160ff021916908360028111156102f3576102f26107c3565b5b02179055508060010160009054906101000a900473ffffffffffffffffffffffffffffffffffffffff1673ffffffffffffffffffffffffffffffffffffffff166108fc349081150290604051600060405180830381858888f19350505050158015610362573d6000803e3d6000fd5b503373ffffffffffffffffffffffffffffffffffffffff16827fa89eb6891733765ee1680954e6c13fbca417ad37abee83d50d8efdb86a6db523346040516103aa91906108db565b60405180910390a35050565b60006001600083815260200190815260200160002090508060020160009054906101000a900473ffffffffffffffffffffffffffffffffffffffff1673ffffffffffffffffffffffffffffffffffffffff163373ffffffffffffffffffffffffffffffffffffffff161461045f576040517f08c379a000000000000000000000000000000000000000000000000000000000815260040161045690610a2b565b60405180910390fd5b60016002811115610473576104726107c3565b5b8160050160009054906101000a900460ff166002811115610497576104966107c3565b5b146104d7576040517f08c379a00000000000000000000000000000000000000000000000000000000081526004016104ce90610a97565b60405180910390fd5b60028160050160006101000a81548160ff021916908360028111156104ff576104fe6107c3565b5b0217905550817f4d6cfd329415806d53db8988cd3c035f681754c229f8d7e5183507deae65cc1660405160405180910390a25050565b60008081548092919061054790610ae6565b91905055506040518060c0016040528060005481526020013373ffffffffffffffffffffffffffffffffffffffff168152602001600073ffffffffffffffffffffffffffffffffffffffff168152602001838152602001828152602001600060028111156105b8576105b76107c3565b5b81525060016000805481526020019081526020016000206000820151816000015560208201518160010160006101000a81548173ffffffffffffffffffffffffffffffffffffffff021916908373ffffffffffffffffffffffffffffffffffffffff16021790555060408201518160020160006101000a81548173ffffffffffffffffffffffffffffffffffffffff021916908373ffffffffffffffffffffffffffffffffffffffff160217905550606082015181600301556080820151816004015560a08201518160050160006101000a81548160ff021916908360028111156106a6576106a56107c3565b5b02179055509050503373ffffffffffffffffffffffffffffffffffffffff166000547fcf3cabbef1a922985e239e7d4b3806775d07a76cecd7ef9311a73e709bb7536a84846040516106f9929190610b2e565b60405180910390a35050565b60005481565b600080fd5b6000819050919050565b61072381610710565b811461072e57600080fd5b50565b6000813590506107408161071a565b92915050565b60006020828403121561075c5761075b61070b565b5b600061076a84828501610731565b91505092915050565b61077c81610710565b82525050565b600073ffffffffffffffffffffffffffffffffffffffff82169050919050565b60006107ad82610782565b9050919050565b6107bd816107a2565b82525050565b7f4e487b7100000000000000000000000000000000000000000000000000000000600052602160045260246000fd5b60038110610803576108026107c3565b5b50565b6000819050610814826107f2565b919050565b600061082482610806565b9050919050565b61083481610819565b82525050565b600060c08201905061084f6000830189610773565b61085c60208301886107b4565b61086960408301876107b4565b6108766060830186610773565b6108836080830185610773565b61089060a083018461082b565b979650505050505050565b600080604083850312156108b2576108b161070b565b5b60006108c085828601610731565b92505060206108d185828601610731565b9150509250929050565b60006020820190506108f06000830184610773565b92915050565b600082825260208201905092915050565b7f416c72656164792066756e646564206f7220696e76616c696400000000000000600082015250565b600061093d6019836108f6565b915061094882610907565b602082019050919050565b6000602082019050818103600083015261096c81610930565b9050919050565b7f496e636f72726563742066756e64696e6720616d6f756e740000000000000000600082015250565b60006109a96018836108f6565b91506109b482610973565b602082019050919050565b600060208201905081810360008301526109d88161099c565b9050919050565b7f4f6e6c792062757965722063616e206d61726b20706169640000000000000000600082015250565b6000610a156018836108f6565b9150610a20826109df565b602082019050919050565b60006020820190508181036000830152610a4481610a08565b9050919050565b7f496e766f696365206e6f742066756e6465640000000000000000000000000000600082015250565b6000610a816012836108f6565b9150610a8c82610a4b565b602082019050919050565b60006020820190508181036000830152610ab081610a74565b9050919050565b7f4e487b7100000000000000000000000000000000000000000000000000000000600052601160045260246000fd5b6000610af182610710565b91507fffffffffffffffffffffffffffffffffffffffffffffffffffffffffffffffff8203610b2357610b22610ab7565b5b600182019050919050565b6000604082019050610b436000830185610773565b610b506020830184610773565b939250505056fea26469706673582212206e1bb1276aee8a60e56cabf665ff6582535ced86fcd14bc9c1724973eaa21c1164736f6c63430008180033",
  "linkReferences": {},
  "deployedLinkReferences": {}
}