{
  "_format": "hh-sol-artifact-1",
  "contractName": "Factra",
  "sourceName": "contracts/Factra.sol",
  "abi": [
    {
      "inputs": [
        {
          "internalType": "address",
          "name": "_invoiceNFT",
          "type": "address"
        }
      ],
      "stateMutability": "nonpayable",
      "type": "constructor"
    },
    {
      "inputs": [],
      "name": "ReentrancyGuardReentrantCall",
      "type": "error"
    },
    {
      "anonymous": false,
      "inputs": [
        {
          "indexed": true,
          "internalType": "uint256",
          "name": "id",
          "type": "uint256"
        },
        {
          "indexed": true,
          "internalType": "address",
          "name": "issuer",
          "type": "address"
        },
        {
          "indexed": false,
          "internalType": "uint256",
          "name": "amount",
          "type": "uint256"
        },
        {
          "indexed": false,
          "internalType": "uint256",
          "name": "dueDate",
          "type": "uint256"
        },
        {
          "indexed": false,
          "internalType": "string",
          "name": "businessName",
          "type": "string"
        },
        {
          "indexed": false,
          "internalType": "string",
          "name": "sector",
          "type": "string"
        },
        {
          "indexed": false,
          "internalType": "uint8",
          "name": "rating",
          "type": "uint8"
        },
        {
          "indexed": false,
          "internalType": "uint8",
          "name": "discountRate",
          "type": "uint8"
        },
        {
          "indexed": false,
          "internalType": "uint256",
          "name": "tokenId",
          "type": "uint256"
        }
      ],
      "name": "InvoiceCreated",
      "type": "event"
    },
    {
      "anonymous": false,
      "inputs": [
        {
          "indexed": true,
          "internalType": "uint256",
          "name": "id",
          "type": "uint256"
        },
        {
          "indexed": true,
          "internalType": "address",
          "name": "buyer",
          "type": "address"
        },
        {
          "indexed": false,
          "internalType": "uint256",
          "name": "amount",
          "type": "uint256"
        },
        {
          "indexed": false,
          "internalType": "uint256",
          "name": "tokenId",
          "type": "uint256"
        }
      ],
      "name": "InvoiceFunded",
      "type": "event"
    },
    {
      "anonymous": false,
      "inputs": [
        {
          "indexed": true,
          "internalType": "uint256",
          "name": "id",
          "type": "uint256"
        },
        {
          "indexed": true,
          "internalType": "address",
          "name": "seller",
          "type": "address"
        },
        {
          "indexed": false,
          "internalType": "uint256",
          "name": "price",
          "type": "uint256"
        }
      ],
      "name": "InvoiceListed",
      "type": "event"
    },
    {
      "anonymous": false,
      "inputs": [
        {
          "indexed": true,
          "internalType": "uint256",
          "name": "id",
          "type": "uint256"
        }
      ],
      "name": "InvoicePaid",
      "type": "event"
    },
    {
      "anonymous": false,
      "inputs": [
        {
          "indexed": true,
          "internalType": "uint256",
          "name": "id",
          "type": "uint256"
        },
        {
          "indexed": true,
          "internalType": "address",
          "name": "oldBuyer",
          "type": "address"
        },
        {
          "indexed": true,
          "internalType": "address",
          "name": "newBuyer",
          "type": "address"
        },
        {
          "indexed": false,
          "internalType": "uint256",
          "name": "price",
          "type": "uint256"
        },
        {
          "indexed": false,
          "internalType": "uint256",
          "name": "tokenId",
          "type": "uint256"
        }
      ],
      "name": "InvoiceResold",
      "type": "event"
    },
    {
      "anonymous": false,
      "inputs": [
        {
          "indexed": true,
          "internalType": "uint256",
          "name": "id",
          "type": "uint256"
        },
        {
          "indexed": true,
          "internalType": "address",
          "name": "seller",
          "type": "address"
        }
      ],
      "name": "InvoiceSaleCancelled",
      "type": "event"
    },
    {
      "inputs": [
        {
          "internalType": "uint256",
          "name": "id",
          "type": "uint256"
        }
      ],
      "name": "buyListedInvoice",
      "outputs": [],
      "stateMutability": "payable",
      "type": "function"
    },
    {
      "inputs": [
        {
          "internalType": "uint256",
          "name": "id",
          "type": "uint256"
        }
      ],
      "name": "cancelListing",
      "outputs": [],
      "stateMutability": "nonpayable",
      "type": "function"
    },
    {
      "inputs": [
        {
          "internalType": "uint256",
          "name": "amount",
          "type": "uint256"
        },
        {
          "internalType": "uint256",
          "name": "dueDate",
          "type": "uint256"
        },
        {
          "internalType": "string",
          "name": "businessName",
          "type": "string"
        },
        {
          "internalType": "string",
          "name": "sector",
          "type": "string"
        },
        {
          "internalType": "uint8",
          "name": "rating",
          "type": "uint8"
        },
        {
          "internalType": "uint8",
          "name": "discountRate",
          "type": "uint8"
        },
        {
          "internalType": "string",
          "name": "tokenURI",
          "type": "string"
        }
      ],
      "name": "createInvoice",
      "outputs": [
        {
          "internalType": "uint256",
          "name": "",
          "type": "uint256"
        }
      ],
      "stateMutability": "nonpayable",
      "type": "function"
    },
    {
      "inputs": [
        {
          "internalType": "uint256",
          "name": "id",
          "type": "uint256"
        }
      ],
      "name": "fundInvoice",
      "outputs": [],
      "stateMutability": "payable",
      "type": "function"
    },
    {
      "inputs": [
        {
          "internalType": "uint256",
          "name": "id",
          "type": "uint256"
        }
      ],
      "name": "getInvoice",
      "outputs": [
        {
          "internalType": "uint256",
          "name": "",
          "type": "uint256"
        },
        {
          "internalType": "address",
          "name": "",
          "type": "address"
        },
        {
          "internalType": "address",
          "name": "",
          "type": "address"
        },
        {
          "internalType": "uint256",
          "name": "",
          "type": "uint256"
        },
        {
          "internalType": "uint256",
          "name": "",
          "type": "uint256"
        },
        {
          "internalType": "enum Factra.InvoiceStatus",
          "name": "",
          "type": "uint8"
        },
        {
          "internalType": "string",
          "name": "",
          "type": "string"
        },
        {
          "internalType": "string",
          "name": "",
          "type": "string"
        },
        {
          "internalType": "uint8",
          "name": "",
          "type": "uint8"
        },
        {
          "internalType": "uint8",
          "name": "",
          "type": "uint8"
        }
      ],
      "stateMutability": "view",
      "type": "function"
    },
    {
      "inputs": [],
      "name": "getInvoiceCount",
      "outputs": [
        {
          "internalType": "uint256",
          "name": "",
          "type": "uint256"
        }
      ],
      "stateMutability": "view",
      "type": "function"
    },
    {
      "inputs": [],
      "name": "invoiceCounter",
      "outputs": [
        {
          "internalType": "uint256",
          "name": "",
          "type": "uint256"
        }
      ],
      "stateMutability": "view",
      "type": "function"
    },
    {
      "inputs": [],
      "name": "invoiceNFT",
      "outputs": [
        {
          "internalType": "contract InvoiceNFT",
          "name": "",
          "type": "address"
        }
      ],
      "stateMutability": "view",
      "type": "function"
    },
    {
      "inputs": [
        {
          "internalType": "uint256",
          "name": "",
          "type": "uint256"
        }
      ],
      "name": "invoices",
      "outputs": [
        {
          "internalType": "uint256",
          "name": "id",
          "type": "uint256"
        },
        {
          "internalType": "address payable",
          "name": "issuer",
          "type": "address"
        },
        {
          "internalType": "address payable",
          "name": "buyer",
          "type": "address"
        },
        {
          "internalType": "uint256",
          "name": "amount",
          "type": "uint256"
        },
        {
          "internalType": "uint256",
          "name": "dueDate",
          "type": "uint256"
        },
        {
          "internalType": "enum Factra.InvoiceStatus",
          "name": "status",
          "type": "uint8"
        },
        {
          "internalType": "string",
          "name": "businessName",
          "type": "string"
        },
        {
          "internalType": "string",
          "name": "sector",
          "type": "string"
        },
        {
          "internalType": "uint8",
          "name": "rating",
          "type": "uint8"
        },
        {
          "internalType": "uint8",
          "name": "discountRate",
          "type": "uint8"
        }
      ],
      "stateMutability": "view",
      "type": "function"
    },
    {
      "inputs": [
        {
          "internalType": "uint256",
          "name": "id",
          "type": "uint256"
        },
        {
          "internalType": "uint256",
          "name": "price",
          "type": "uint256"
        }
      ],
      "name": "listInvoiceForSale",
      "outputs": [],
      "stateMutability": "nonpayable",
      "type": "function"
    },
    {
      "inputs": [
        {
          "internalType": "uint256",
          "name": "",
          "type": "uint256"
        }
      ],
      "name": "listingPrice",
      "outputs": [
        {
          "internalType": "uint256",
          "name": "",
          "type": "uint256"
        }
      ],
      "stateMutability": "view",
      "type": "function"
    },
    {
      "inputs": [
        {
          "internalType": "uint256",
          "name": "id",
          "type": "uint256"
        }
      ],
      "name": "markAsPaid",
      "outputs": [],
      "stateMutability": "nonpayable",
      "type": "function"
    }
  ],
  "bytecode": "0x60806040523480156200001157600080fd5b5060405162002fa838038062002fa8833981810160405281019062000037919062000163565b6001600081905550600073ffffffffffffffffffffffffffffffffffffffff168173ffffffffffffffffffffffffffffffffffffffff1603620000b1576040517f08c379a0000000000000000000000000000000000000000000000000000000008152600401620000a890620001f6565b60405180910390fd5b80600260006101000a81548173ffffffffffffffffffffffffffffffffffffffff021916908373ffffffffffffffffffffffffffffffffffffffff1602179055505062000218565b600080fd5b600073ffffffffffffffffffffffffffffffffffffffff82169050919050565b60006200012b82620000fe565b9050919050565b6200013d816200011e565b81146200014957600080fd5b50565b6000815190506200015d8162000132565b92915050565b6000602082840312156200017c576200017b620000f9565b5b60006200018c848285016200014c565b91505092915050565b600082825260208201905092915050565b7f496e76616c696420496e766f6963654e46542061646472657373000000000000600082015250565b6000620001de601a8362000195565b9150620001eb82620001a6565b602082019050919050565b600060208201905081810360008301526200021181620001cf565b9050919050565b612d8080620002286000396000f3fe6080604052600436106100a75760003560e01c806364d5fa471161006457806364d5fa47146102065780637021cafe146102225780637d6a59ed1461024b5780638756fff314610276578063a57b381c14610292578063cc7945ef146102bd576100a7565b8063115bc936146100ac578063305a67a8146100e95780633a23cc0a146101125780634bb6f06d146101585780634e6d14051461018357806364720c7a146101c9575b600080fd5b3480156100b857600080fd5b506100d360048036038101906100ce9190611a93565b6102e6565b6040516100e09190611acf565b60405180910390f35b3480156100f557600080fd5b50610110600480360381019061010b9190611a93565b6102fe565b005b34801561011e57600080fd5b5061013960048036038101906101349190611a93565b610480565b60405161014f9a99989796959493929190611c4e565b60405180910390f35b34801561016457600080fd5b5061016d61076b565b60405161017a9190611d57565b60405180910390f35b34801561018f57600080fd5b506101aa60048036038101906101a59190611a93565b610791565b6040516101c09a99989796959493929190611d93565b60405180910390f35b3480156101d557600080fd5b506101f060048036038101906101eb9190611f9e565b61095c565b6040516101fd9190611acf565b60405180910390f35b610220600480360381019061021b9190611a93565b610d00565b005b34801561022e57600080fd5b5061024960048036038101906102449190611a93565b6110fc565b005b34801561025757600080fd5b506102606113c2565b60405161026d9190611acf565b60405180910390f35b610290600480360381019061028b9190611a93565b6113cc565b005b34801561029e57600080fd5b506102a7611823565b6040516102b49190611acf565b60405180910390f35b3480156102c957600080fd5b506102e460048036038101906102df9190612094565b611829565b005b60036020528060005260406000206000915090505481565b60006004600083815260200190815260200160002090506001600281111561032957610328611b2b565b5b8160050160009054906101000a900460ff16600281111561034d5761034c611b2b565b5b1461038d576040517f08c379a000000000000000000000000000000000000000000000000000000000815260040161038490612120565b60405180910390fd5b3373ffffffffffffffffffffffffffffffffffffffff168160020160009054906101000a900473ffffffffffffffffffffffffffffffffffffffff1673ffffffffffffffffffffffffffffffffffffffff161461041f576040517f08c379a00000000000000000000000000000000000000000000000000000000081526004016104169061218c565b60405180910390fd5b600060036000848152602001908152602001600020819055503373ffffffffffffffffffffffffffffffffffffffff16827f3ff015ecfab99fb9b9f347fb10ab66c2c617b672f083ff55a00bcdd8b209f4a560405160405180910390a35050565b6000806000806000806060806000806000600460008d815260200190815260200160002060405180610140016040529081600082015481526020016001820160009054906101000a900473ffffffffffffffffffffffffffffffffffffffff1673ffffffffffffffffffffffffffffffffffffffff1673ffffffffffffffffffffffffffffffffffffffff1681526020016002820160009054906101000a900473ffffffffffffffffffffffffffffffffffffffff1673ffffffffffffffffffffffffffffffffffffffff1673ffffffffffffffffffffffffffffffffffffffff16815260200160038201548152602001600482015481526020016005820160009054906101000a900460ff16600281111561059f5761059e611b2b565b5b60028111156105b1576105b0611b2b565b5b81526020016006820180546105c5906121db565b80601f01602080910402602001604051908101604052809291908181526020018280546105f1906121db565b801561063e5780601f106106135761010080835404028352916020019161063e565b820191906000526020600020905b81548152906001019060200180831161062157829003601f168201915b50505050508152602001600782018054610657906121db565b80601f0160208091040260200160405190810160405280929190818152602001828054610683906121db565b80156106d05780601f106106a5576101008083540402835291602001916106d0565b820191906000526020600020905b8154815290600101906020018083116106b357829003601f168201915b505050505081526020016008820160009054906101000a900460ff1660ff1660ff1681526020016008820160019054906101000a900460ff1660ff1660ff16815250509050806000015181602001518260400151836060015184608001518560a001518660c001518760e001518861010001518961012001519a509a509a509a509a509a509a509a509a509a50509193959799509193959799565b600260009054906101000a900473ffffffffffffffffffffffffffffffffffffffff1681565b60046020528060005260406000206000915090508060000154908060010160009054906101000a900473ffffffffffffffffffffffffffffffffffffffff16908060020160009054906101000a900473ffffffffffffffffffffffffffffffffffffffff16908060030154908060040154908060050160009054906101000a900460ff1690806006018054610825906121db565b80601f0160208091040260200160405190810160405280929190818152602001828054610851906121db565b801561089e5780601f106108735761010080835404028352916020019161089e565b820191906000526020600020905b81548152906001019060200180831161088157829003601f168201915b5050505050908060070180546108b3906121db565b80601f01602080910402602001604051908101604052809291908181526020018280546108df906121db565b801561092c5780601f106109015761010080835404028352916020019161092c565b820191906000526020600020905b81548152906001019060200180831161090f57829003601f168201915b5050505050908060080160009054906101000a900460ff16908060080160019054906101000a900460ff1690508a565b60008088116109a0576040517f08c379a000000000000000000000000000000000000000000000000000000000815260040161099790612258565b60405180910390fd5b4287116109e2576040517f08c379a00000000000000000000000000000000000000000000000000000000081526004016109d9906122c4565b60405180910390fd5b600160008154809291906109f590612313565b9190505550600060015490506040518061014001604052808281526020013373ffffffffffffffffffffffffffffffffffffffff168152602001600073ffffffffffffffffffffffffffffffffffffffff1681526020018a815260200189815260200160006002811115610a6c57610a6b611b2b565b5b81526020018881526020018781526020018660ff1681526020018560ff16815250600460008381526020019081526020016000206000820151816000015560208201518160010160006101000a81548173ffffffffffffffffffffffffffffffffffffffff021916908373ffffffffffffffffffffffffffffffffffffffff16021790555060408201518160020160006101000a81548173ffffffffffffffffffffffffffffffffffffffff021916908373ffffffffffffffffffffffffffffffffffffffff160217905550606082015181600301556080820151816004015560a08201518160050160006101000a81548160ff02191690836002811115610b7757610b76611b2b565b5b021790555060c0820151816006019081610b9191906124fd565b5060e0820151816007019081610ba791906124fd565b506101008201518160080160006101000a81548160ff021916908360ff1602179055506101208201518160080160016101000a81548160ff021916908360ff1602179055509050506000600260009054906101000a900473ffffffffffffffffffffffffffffffffffffffff1673ffffffffffffffffffffffffffffffffffffffff1663eccb584c3384876040518463ffffffff1660e01b8152600401610c50939291906125cf565b6020604051808303816000875af1158015610c6f573d6000803e3d6000fd5b505050506040513d601f19601f82011682018060405250810190610c939190612622565b90503373ffffffffffffffffffffffffffffffffffffffff16827fc7e9b4e8a93613fb82453d92d8e674f8a26d8c03a426dcbfe981e707db8a1a528c8c8c8c8c8c89604051610ce8979695949392919061264f565b60405180910390a38192505050979650505050505050565b610d086119f9565b600060046000838152602001908152602001600020905060006002811115610d3357610d32611b2b565b5b8160050160009054906101000a900460ff166002811115610d5757610d56611b2b565b5b14610d97576040517f08c379a0000000000000000000000000000000000000000000000000000000008152600401610d8e90612718565b60405180910390fd5b600060648260080160019054906101000a900460ff1660ff168360030154610dbf9190612738565b610dc991906127a9565b8260030154610dd891906127da565b9050803414610e1c576040517f08c379a0000000000000000000000000000000000000000000000000000000008152600401610e1390612880565b60405180910390fd5b60008260010160009054906101000a900473ffffffffffffffffffffffffffffffffffffffff169050338360020160006101000a81548173ffffffffffffffffffffffffffffffffffffffff021916908373ffffffffffffffffffffffffffffffffffffffff16021790555060018360050160006101000a81548160ff02191690836002811115610eb057610eaf611b2b565b5b021790555060008173ffffffffffffffffffffffffffffffffffffffff1634604051610edb906128d1565b60006040518083038185875af1925050503d8060008114610f18576040519150601f19603f3d011682016040523d82523d6000602084013e610f1d565b606091505b5050905080610f61576040517f08c379a0000000000000000000000000000000000000000000000000000000008152600401610f5890612958565b60405180910390fd5b6000600260009054906101000a900473ffffffffffffffffffffffffffffffffffffffff1673ffffffffffffffffffffffffffffffffffffffff16635ab6b7e2876040518263ffffffff1660e01b8152600401610fbe9190611acf565b602060405180830381865afa158015610fdb573d6000803e3d6000fd5b505050506040513d601f19601f82011682018060405250810190610fff9190612622565b90506000811461109b57600260009054906101000a900473ffffffffffffffffffffffffffffffffffffffff1673ffffffffffffffffffffffffffffffffffffffff1663df6bf5038285336040518463ffffffff1660e01b815260040161106893929190612999565b600060405180830381600087803b15801561108257600080fd5b505af1158015611096573d6000803e3d6000fd5b505050505b3373ffffffffffffffffffffffffffffffffffffffff16867f505d13f6237f1fb1f412dfc253f6124671aa7784bb9b98411e6183eb11bdb8a534846040516110e49291906129d0565b60405180910390a350505050506110f9611a3f565b50565b6111046119f9565b60006004600083815260200190815260200160002090508060020160009054906101000a900473ffffffffffffffffffffffffffffffffffffffff1673ffffffffffffffffffffffffffffffffffffffff163373ffffffffffffffffffffffffffffffffffffffff16146111ad576040517f08c379a00000000000000000000000000000000000000000000000000000000081526004016111a490612a45565b60405180910390fd5b600160028111156111c1576111c0611b2b565b5b8160050160009054906101000a900460ff1660028111156111e5576111e4611b2b565b5b14611225576040517f08c379a000000000000000000000000000000000000000000000000000000000815260040161121c90612120565b60405180910390fd5b60028160050160006101000a81548160ff0219169083600281111561124d5761124c611b2b565b5b02179055506000600260009054906101000a900473ffffffffffffffffffffffffffffffffffffffff1673ffffffffffffffffffffffffffffffffffffffff16635ab6b7e2846040518263ffffffff1660e01b81526004016112af9190611acf565b602060405180830381865afa1580156112cc573d6000803e3d6000fd5b505050506040513d601f19601f820116820180604052508101906112f09190612622565b90506000811461138857600260009054906101000a900473ffffffffffffffffffffffffffffffffffffffff1673ffffffffffffffffffffffffffffffffffffffff1663e3b9825a826040518263ffffffff1660e01b81526004016113559190611acf565b600060405180830381600087803b15801561136f57600080fd5b505af1158015611383573d6000803e3d6000fd5b505050505b827f4d6cfd329415806d53db8988cd3c035f681754c229f8d7e5183507deae65cc1660405160405180910390a250506113bf611a3f565b50565b6000600154905090565b6113d46119f9565b6000600460008381526020019081526020016000209050600160028111156113ff576113fe611b2b565b5b8160050160009054906101000a900460ff16600281111561142357611422611b2b565b5b14611463576040517f08c379a000000000000000000000000000000000000000000000000000000000815260040161145a90612120565b60405180910390fd5b600060036000848152602001908152602001600020549050600081116114be576040517f08c379a00000000000000000000000000000000000000000000000000000000081526004016114b590612ab1565b60405180910390fd5b803414611500576040517f08c379a00000000000000000000000000000000000000000000000000000000081526004016114f790612b1d565b60405180910390fd5b60008260020160009054906101000a900473ffffffffffffffffffffffffffffffffffffffff16905060003390506000600260009054906101000a900473ffffffffffffffffffffffffffffffffffffffff1673ffffffffffffffffffffffffffffffffffffffff16635ab6b7e2876040518263ffffffff1660e01b815260040161158b9190611acf565b602060405180830381865afa1580156115a8573d6000803e3d6000fd5b505050506040513d601f19601f820116820180604052508101906115cc9190612622565b905060008103611611576040517f08c379a000000000000000000000000000000000000000000000000000000000815260040161160890612b89565b60405180910390fd5b818560020160006101000a81548173ffffffffffffffffffffffffffffffffffffffff021916908373ffffffffffffffffffffffffffffffffffffffff1602179055506000600360008881526020019081526020016000208190555060008373ffffffffffffffffffffffffffffffffffffffff1634604051611693906128d1565b60006040518083038185875af1925050503d80600081146116d0576040519150601f19603f3d011682016040523d82523d6000602084013e6116d5565b606091505b5050905080611719576040517f08c379a000000000000000000000000000000000000000000000000000000000815260040161171090612c1b565b60405180910390fd5b600260009054906101000a900473ffffffffffffffffffffffffffffffffffffffff1673ffffffffffffffffffffffffffffffffffffffff1663df6bf5038386866040518463ffffffff1660e01b815260040161177893929190612c3b565b600060405180830381600087803b15801561179257600080fd5b505af11580156117a6573d6000803e3d6000fd5b505050508273ffffffffffffffffffffffffffffffffffffffff168473ffffffffffffffffffffffffffffffffffffffff16887f034a34e515d38f3056a99efdf6569c2bcd984f99f14ce11e37420394b9efab81888660405161180a9291906129d0565b60405180910390a4505050505050611820611a3f565b50565b60015481565b60006004600084815260200190815260200160002090506001600281111561185457611853611b2b565b5b8160050160009054906101000a900460ff16600281111561187857611877611b2b565b5b146118b8576040517f08c379a00000000000000000000000000000000000000000000000000000000081526004016118af90612120565b60405180910390fd5b3373ffffffffffffffffffffffffffffffffffffffff168160020160009054906101000a900473ffffffffffffffffffffffffffffffffffffffff1673ffffffffffffffffffffffffffffffffffffffff161461194a576040517f08c379a000000000000000000000000000000000000000000000000000000000815260040161194190612cbe565b60405180910390fd5b6000821161198d576040517f08c379a000000000000000000000000000000000000000000000000000000000815260040161198490612d2a565b60405180910390fd5b8160036000858152602001908152602001600020819055503373ffffffffffffffffffffffffffffffffffffffff16837f807868845918453ada526e4d40a6904919881739f9afa6faec321a955dc2fb13846040516119ec9190611acf565b60405180910390a3505050565b600260005403611a35576040517f3ee5aeb500000000000000000000000000000000000000000000000000000000815260040160405180910390fd5b6002600081905550565b6001600081905550565b6000604051905090565b600080fd5b600080fd5b6000819050919050565b611a7081611a5d565b8114611a7b57600080fd5b50565b600081359050611a8d81611a67565b92915050565b600060208284031215611aa957611aa8611a53565b5b6000611ab784828501611a7e565b91505092915050565b611ac981611a5d565b82525050565b6000602082019050611ae46000830184611ac0565b92915050565b600073ffffffffffffffffffffffffffffffffffffffff82169050919050565b6000611b1582611aea565b9050919050565b611b2581611b0a565b82525050565b7f4e487b7100000000000000000000000000000000000000000000000000000000600052602160045260246000fd5b60038110611b6b57611b6a611b2b565b5b50565b6000819050611b7c82611b5a565b919050565b6000611b8c82611b6e565b9050919050565b611b9c81611b81565b82525050565b600081519050919050565b600082825260208201905092915050565b60005b83811015611bdc578082015181840152602081019050611bc1565b60008484015250505050565b6000601f19601f8301169050919050565b6000611c0482611ba2565b611c0e8185611bad565b9350611c1e818560208601611bbe565b611c2781611be8565b840191505092915050565b600060ff82169050919050565b611c4881611c32565b82525050565b600061014082019050611c64600083018d611ac0565b611c71602083018c611b1c565b611c7e604083018b611b1c565b611c8b606083018a611ac0565b611c986080830189611ac0565b611ca560a0830188611b93565b81810360c0830152611cb78187611bf9565b905081810360e0830152611ccb8186611bf9565b9050611cdb610100830185611c3f565b611ce9610120830184611c3f565b9b9a5050505050505050505050565b6000819050919050565b6000611d1d611d18611d1384611aea565b611cf8565b611aea565b9050919050565b6000611d2f82611d02565b9050919050565b6000611d4182611d24565b9050919050565b611d5181611d36565b82525050565b6000602082019050611d6c6000830184611d48565b92915050565b6000611d7d82611aea565b9050919050565b611d8d81611d72565b82525050565b600061014082019050611da9600083018d611ac0565b611db6602083018c611d84565b611dc3604083018b611d84565b611dd0606083018a611ac0565b611ddd6080830189611ac0565b611dea60a0830188611b93565b81810360c0830152611dfc8187611bf9565b905081810360e0830152611e108186611bf9565b9050611e20610100830185611c3f565b611e2e610120830184611c3f565b9b9a5050505050505050505050565b600080fd5b600080fd5b7f4e487b7100000000000000000000000000000000000000000000000000000000600052604160045260246000fd5b611e7f82611be8565b810181811067ffffffffffffffff82111715611e9e57611e9d611e47565b5b80604052505050565b6000611eb1611a49565b9050611ebd8282611e76565b919050565b600067ffffffffffffffff821115611edd57611edc611e47565b5b611ee682611be8565b9050602081019050919050565b82818337600083830152505050565b6000611f15611f1084611ec2565b611ea7565b905082815260208101848484011115611f3157611f30611e42565b5b611f3c848285611ef3565b509392505050565b600082601f830112611f5957611f58611e3d565b5b8135611f69848260208601611f02565b91505092915050565b611f7b81611c32565b8114611f8657600080fd5b50565b600081359050611f9881611f72565b92915050565b600080600080600080600060e0888a031215611fbd57611fbc611a53565b5b6000611fcb8a828b01611a7e565b9750506020611fdc8a828b01611a7e565b965050604088013567ffffffffffffffff811115611ffd57611ffc611a58565b5b6120098a828b01611f44565b955050606088013567ffffffffffffffff81111561202a57612029611a58565b5b6120368a828b01611f44565b94505060806120478a828b01611f89565b93505060a06120588a828b01611f89565b92505060c088013567ffffffffffffffff81111561207957612078611a58565b5b6120858a828b01611f44565b91505092959891949750929550565b600080604083850312156120ab576120aa611a53565b5b60006120b985828601611a7e565b92505060206120ca85828601611a7e565b9150509250929050565b7f496e766f696365206e6f742066756e6465640000000000000000000000000000600082015250565b600061210a601283611bad565b9150612115826120d4565b602082019050919050565b60006020820190508181036000830152612139816120fd565b9050919050565b7f4f6e6c792062757965722063616e2063616e63656c0000000000000000000000600082015250565b6000612176601583611bad565b915061218182612140565b602082019050919050565b600060208201905081810360008301526121a581612169565b9050919050565b7f4e487b7100000000000000000000000000000000000000000000000000000000600052602260045260246000fd5b600060028204905060018216806121f357607f821691505b602082108103612206576122056121ac565b5b50919050565b7f416d6f756e74206d757374206265203e20300000000000000000000000000000600082015250565b6000612242601283611bad565b915061224d8261220c565b602082019050919050565b6000602082019050818103600083015261227181612235565b9050919050565b7f4475652064617465206d75737420626520696e20667574757265000000000000600082015250565b60006122ae601a83611bad565b91506122b982612278565b602082019050919050565b600060208201905081810360008301526122dd816122a1565b9050919050565b7f4e487b7100000000000000000000000000000000000000000000000000000000600052601160045260246000fd5b600061231e82611a5d565b91507fffffffffffffffffffffffffffffffffffffffffffffffffffffffffffffffff82036123505761234f6122e4565b5b600182019050919050565b60008190508160005260206000209050919050565b60006020601f8301049050919050565b600082821b905092915050565b6000600883026123bd7fffffffffffffffffffffffffffffffffffffffffffffffffffffffffffffffff82612380565b6123c78683612380565b95508019841693508086168417925050509392505050565b60006123fa6123f56123f084611a5d565b611cf8565b611a5d565b9050919050565b6000819050919050565b612414836123df565b61242861242082612401565b84845461238d565b825550505050565b600090565b61243d612430565b61244881848461240b565b505050565b5b8181101561246c57612461600082612435565b60018101905061244e565b5050565b601f8211156124b1576124828161235b565b61248b84612370565b8101602085101561249a578190505b6124ae6124a685612370565b83018261244d565b50505b505050565b600082821c905092915050565b60006124d4600019846008026124b6565b1980831691505092915050565b60006124ed83836124c3565b9150826002028217905092915050565b61250682611ba2565b67ffffffffffffffff81111561251f5761251e611e47565b5b61252982546121db565b612534828285612470565b600060209050601f8311600181146125675760008415612555578287015190505b61255f85826124e1565b8655506125c7565b601f1984166125758661235b565b60005b8281101561259d57848901518255600182019150602085019450602081019050612578565b868310156125ba57848901516125b6601f8916826124c3565b8355505b6001600288020188555050505b505050505050565b60006060820190506125e46000830186611b1c565b6125f16020830185611ac0565b81810360408301526126038184611bf9565b9050949350505050565b60008151905061261c81611a67565b92915050565b60006020828403121561263857612637611a53565b5b60006126468482850161260d565b91505092915050565b600060e082019050612664600083018a611ac0565b6126716020830189611ac0565b81810360408301526126838188611bf9565b905081810360608301526126978187611bf9565b90506126a66080830186611c3f565b6126b360a0830185611c3f565b6126c060c0830184611ac0565b98975050505050505050565b7f416c72656164792066756e646564206f7220696e76616c696400000000000000600082015250565b6000612702601983611bad565b915061270d826126cc565b602082019050919050565b60006020820190508181036000830152612731816126f5565b9050919050565b600061274382611a5d565b915061274e83611a5d565b925082820261275c81611a5d565b91508282048414831517612773576127726122e4565b5b5092915050565b7f4e487b7100000000000000000000000000000000000000000000000000000000600052601260045260246000fd5b60006127b482611a5d565b91506127bf83611a5d565b9250826127cf576127ce61277a565b5b828204905092915050565b60006127e582611a5d565b91506127f083611a5d565b9250828203905081811115612808576128076122e4565b5b92915050565b7f496e636f727265637420646973636f756e7465642066756e64696e6720616d6f60008201527f756e740000000000000000000000000000000000000000000000000000000000602082015250565b600061286a602383611bad565b91506128758261280e565b604082019050919050565b600060208201905081810360008301526128998161285d565b9050919050565b600081905092915050565b50565b60006128bb6000836128a0565b91506128c6826128ab565b600082019050919050565b60006128dc826128ae565b9150819050919050565b7f4661696c656420746f207472616e736665722066756e647320746f206973737560008201527f6572000000000000000000000000000000000000000000000000000000000000602082015250565b6000612942602283611bad565b915061294d826128e6565b604082019050919050565b6000602082019050818103600083015261297181612935565b9050919050565b600061298382611d24565b9050919050565b61299381612978565b82525050565b60006060820190506129ae6000830186611ac0565b6129bb602083018561298a565b6129c86040830184611b1c565b949350505050565b60006040820190506129e56000830185611ac0565b6129f26020830184611ac0565b9392505050565b7f4f6e6c792062757965722063616e206d61726b20706169640000000000000000600082015250565b6000612a2f601883611bad565b9150612a3a826129f9565b602082019050919050565b60006020820190508181036000830152612a5e81612a22565b9050919050565b7f496e766f696365206e6f74206c69737465640000000000000000000000000000600082015250565b6000612a9b601283611bad565b9150612aa682612a65565b602082019050919050565b60006020820190508181036000830152612aca81612a8e565b9050919050565b7f496e636f7272656374207061796d656e7420616d6f756e740000000000000000600082015250565b6000612b07601883611bad565b9150612b1282612ad1565b602082019050919050565b60006020820190508181036000830152612b3681612afa565b9050919050565b7f4e4654206e6f7420666f756e6400000000000000000000000000000000000000600082015250565b6000612b73600d83611bad565b9150612b7e82612b3d565b602082019050919050565b60006020820190508181036000830152612ba281612b66565b9050919050565b7f4661696c656420746f207472616e73666572207061796d656e7420746f20736560008201527f6c6c657200000000000000000000000000000000000000000000000000000000602082015250565b6000612c05602483611bad565b9150612c1082612ba9565b604082019050919050565b60006020820190508181036000830152612c3481612bf8565b9050919050565b6000606082019050612c506000830186611ac0565b612c5d602083018561298a565b612c6a604083018461298a565b949350505050565b7f4f6e6c792062757965722063616e206c69737400000000000000000000000000600082015250565b6000612ca8601383611bad565b9150612cb382612c72565b602082019050919050565b60006020820190508181036000830152612cd781612c9b565b9050919050565b7f5072696365206d757374206265203e2030000000000000000000000000000000600082015250565b6000612d14601183611bad565b9150612d1f82612cde565b602082019050919050565b60006020820190508181036000830152612d4381612d07565b905091905056fea2646970667358221220463cd24c7b8f18de0070cef46ee22cd62b9a770c69fc7f76423e0943a29729eb64736f6c63430008180033",
  "linkReferences": {},
  "deployedLinkReferences": {}
}